:020000040800F2
:10000000B808002049040008A5040008A504000859
:10001000A5040008A5040008A504000800000000CD
:10002000000000000000000000000000A50400081F
:10003000A504000800000000A5040008A5040008AD
:10004000A5040008A5040008A5040008A5040008EC
:10005000A5040008A5040008A5040008A5040008DC
:10006000A5040008A5040008A5040008A5040008CC
:10007000A5040008A5040008A5040008A5040008BC
:10008000A5040008A5040008A5040008A5040008AC
:10009000A5040008A5040008A5040008A50400089C
:1000A000A5040008A5040008A5040008A50400088C
:1000B000A5040008A5040008A5040008A50400087C
:1000C000A5040008A5040008A5040008A50400086C
:1000D000A5040008A5040008A5040008A50400085C
:1000E000A5040008A5040008A5040008A50400084C
:1000F000A5040008A5040008A5040008A50400083C
:10010000A5040008A5040008A5040008A50400082B
:10011000BD0A0008A5040008A5040008A5040008FD
:10012000A5040008A5040008A5040008A50400080B
:10013000A5040008A5040008A5040008A5040008FB
:10014000A5040008A5040008A5040008A5040008EB
:10015000A5040008A5040008A5040008A5040008DB
:10016000A5040008A5040008A5040008A5040008CB
:10017000A5040008A5040008A5040008A5040008BB
:10018000A5040008A504000880B58AB000AF786017
:10019000396000237B6200233B620023FB61002364
:1001A000BB617B681B8A9BB27B627B6A23F44053F2
:1001B0007B623B68DB887A6A13437B627B6A9AB214
:1001C0007B681A827B689B899BB27B627B6A23F483
:1001D000B05323F00C037B623B689A883B681B8911
:1001E00013439AB23B685B8913439BB27A6A134309
:1001F0007B627B6A9AB27B689A817B689B8A9BB29E
:100200007B627B6A23F440737B623B689B897A6ADA
:1002100013437B627B6A9AB27B689A8207F1080378
:10022000184600F0A9FC7A68314B9A4203D07A68EC
:10023000304B9A4202D17B693B6201E03B693B62F1
:100240007B689B899BB29BB21BB2002B0CDA3A6A8B
:1002500013469B0013449A001A443B681B685B00DA
:10026000B2FBF3F3FB610BE03A6A13469B001344C5
:100270009A001A443B681B689B00B2FBF3F3FB61D6
:10028000FA691D4BA3FB02135B091B017B627B6AAE
:100290001B09642202FB03F3FA69D31ABB617B6872
:1002A0009B899BB29BB21BB2002B0DDABB69DB00B2
:1002B00003F13202104BA3FB02135B0903F00703A7
:1002C0007A6A13437B620CE0BB691B0103F13202C3
:1002D000094BA3FB02135B0903F00F037A6A134374
:1002E0007B627B6A9AB27B681A812837BD4680BDE3
:1002F00000100140001401401F85EB5180B483B011
:1003000000AF78600B46FB70FB78002B08D07B6851
:100310009B899BB243F400539AB27B689A8107E0B1
:100320007B689B899BB223F400539AB27B689A81C5
:100330000C37BD465DF8047B704700BF80B483B0C6
:1003400000AF78600B467B807B88C3F308039AB2CA
:100350007B689A800C37BD465DF8047B704700BF10
:1003600080B483B000AF78607B689B889BB2C3F396
:1003700008039BB218460C37BD465DF8047B7047F6
:1003800080B487B000AF786013460A467A807B70ED
:1003900000233B610023FB600023BB6000237B61E3
:1003A0007B687B617B88DBB25B09DBB23B617B886E
:1003B00003F01F03FB60FB68012202FA03F3BB603A
:1003C0003B69012B03D17B690C337B6109E03B69FD
:1003D000022B03D17B6910337B6102E07B6914330C
:1003E0007B617B78002B06D07B697A691168BA68DB
:1003F0000A431A6006E07B697A691168BA68D243D9
:100400000A401A601C37BD465DF8047B704700BF88
:1004100080B485B000AF78600B467B800023FB730F
:100420007B681B889AB27B8813409BB2002B02D05A
:100430000123FB7301E00023FB73FB7B1846143799
:10044000BD465DF8047B704780B582B000AF104BAD
:100450007B60104B3B6007E03B681A1D3A607A688E
:10046000111D796012681A603A680B4B9A42F3D3F7
:100470000A480B494FF000028842B8BF40F8042BED
:10048000FFF6FAAF00F056FB0837BD4680BD00BF4F
:10049000E00F00080000002034000020340000209D
:1004A000B800002080B400AFFEE700BF80B483B086
:1004B00000AF786039607A683B689A4201DA7B68FD
:1004C00000E03B6818460C37BD465DF8047B70477A
:1004D00080B483B000AF786039607A683B689A4234
:1004E00001DD7B6800E03B6818460C37BD465DF8CF
:1004F000047B704780B582B000AF0820012100F076
:10050000E5FB01233B710023BB714FF440533B607B
:100510000023FB713B460648194600F013FC0448D3
:100520004FF4805100F09CFC0837BD4680BD00BFF1
:10053000000C024080B586B000AF0120012100F020
:10054000C5FB1E480021082200F0A6FC1B48012123
:10055000082200F0A1FC02233B750023BB75032396
:100560003B610023FB7507F110031448194600F0A6
:10057000E9FB4FF40020012100F0C6FB4FF41653B5
:100580003B600023BB800023FB8000233B810C23C6
:100590007B810023BB813B4609481946FFF7F4FDE8
:1005A00007480121FFF7AAFE054840F22551012224
:1005B000FFF7E6FE1837BD4680BD00BF00000240D1
:1005C000004C004080B582B000AF34233B71012362
:1005D000FB7100237B710023BB713B1D184600F0AB
:1005E000A1FC0837BD4680BD80B400AF0A4B1A6835
:1005F0000A4B1A600A4B1A680A4B1B68D21A064B40
:100600001A60054B1A68054B1B68D21A064B1A6014
:10061000BD465DF8047B70473C0000203800002098
:1006200000000020340000204000002080B500AF12
:10063000474B00221A60474B00221A60464B0022AB
:100640001A60464B1B68002B1ADD444B1A68444B5A
:100650001B6810461946FFF729FF02463C4B1A60FB
:100660003F4B1A683D4B1B68D31A18460021FFF711
:100670002FFF0246384B1A60364B00221A601EE0EC
:10068000364B1B68002B1ADA314B00221A60344BB0
:100690001A68324B1B68134418460021FFF718FFF5
:1006A00002462D4B1A602D4B1B685A422C4B1B687F
:1006B00010461946FFF7FAFE0246264B1A60294BF0
:1006C00000221A60284B00221A60284B00221A6070
:1006D000274B1B68002B1ADD254B1A68204B1B6823
:1006E00010461946FFF7E2FE02461E4B1A601C4BED
:1006F0001A681F4B1B68D31A18460021FFF7E8FE43
:1007000002461A4B1A60184B00221A601EE0184B62
:100710001B68002B1ADA134B00221A60104B1A6860
:10072000134B1B68134418460021FFF7D1FE024605
:100730000E4B1A600E4B1B685A42094B1B68104641
:100740001946FFF7B3FE0246074B1A6080BD00BF93
:1007500044000020480000204C0000203C00002005
:100760000400002050000020540000205800002009
:100770004000002080B500AF314B1A68314B1B6838
:1007800010461946FFF792FE02462F4B1A602C4B7B
:100790001A682E4B1B6810461946FFF787FE024663
:1007A000294B5A60264B1A68294B1B68104619467C
:1007B000FFF77CFE0246244B9A60264B1A68214BB9
:1007C0001B6810461946FFF771FE02461E4BDA60A1
:1007D000204B1A681D4B1B6810461946FFF766FE32
:1007E0000246194B1A611B4B1A68194B1B681046BD
:1007F0001946FFF75BFE0246134B5A61164B1A6807
:10080000104B1B6810461946FFF750FE02460E4B70
:100810009A61114B1A680D4B1B6810461946FFF779
:1008200045FE0246084BDA610B4B1A68084B1B6801
:1008300010461946FFF73AFE0246034B1A6280BD86
:1008400048000020540000205C00002058000020D8
:10085000500000204C0000204400002098B500AF5C
:10086000564B1A69564B1A60544BDA68534B5B6807
:1008700010461946FFF72CFE0446504BDA694F4BE1
:100880005B6910461946FFF723FE034620461946CA
:10089000FFF71EFE0446494B1A68484B1B6A104678
:1008A0001946FFF715FE034620461946FFF710FECE
:1008B0000246444B1A60414B9A68404B9B69104674
:1008C0001946FFF705FE02463F4B1A603B4B9A68FC
:1008D0003A4B9B6910461946FFF7FAFD0246374B23
:1008E0001B6910461946FFF7F3FD0246374B1A60A5
:1008F000324B1A68314B5B6810461946FFF7E8FD2A
:1009000004462E4BDA692D4B1B6A10461946FFF739
:10091000DFFD034620461946FFF7DAFD02462C4B61
:100920001A60264BDA68254B5B6910461946FFF7BB
:10093000CFFD0246274B1A60214B1B68264A1268DE
:1009400002FB03F21F4B1B682449096801FB03F3F8
:100950001A441D4B1B682249096801FB03F31A4422
:10096000204B1A60164B1A68164B1B681A44164B1C
:100970001B681A441C4B1A60144B1B681B4A1268F4
:1009800002FB03F2124B1B681949096801FB03F3D0
:100990001A44104B1B681749096801FB03F31A44FA
:1009A000154B1A60094B1A68094B1B681A44094B0E
:1009B0001B681A44114B1A6098BD00BF5C000020F0
:1009C000B0000020AC000020A0000020A800002003
:1009D000A40000209C000020080000200C00002043
:1009E000100000208000002084000020140000205F
:1009F000180000201C000020880000208C0000202F
:100A000080B500AFFFF712FEFFF7B4FEFFF726FF39
:100A1000204B1B68002B1ED01F4B1B68002B1AD0CD
:100A20001E4B1B681E4A126802FB03F2194B1B681F
:100A300092FBF3F21B4B1A601B4B1B681B4A12689C
:100A400002FB03F2144B1B6892FBF3F2154B1B687D
:100A50001A44144B1A60164B1A68164B1A60154B41
:100A60001A68104B1B681A44124B1A60114B1B6812
:100A700000201946FFF72CFD02460F4B1B6810465D
:100A80001946FFF713FD02460A4B1A60094B1B6813
:100A9000184680BD840000208C0000203C0000200F
:100AA00080000020940000204000002088000020EA
:100AB00098000020900000202000002080B500AFAA
:100AC00018484FF4005100F0CBF91748FFF748FCE5
:100AD00003461A46154B1A60FFF786FD11484FF47E
:100AE000005100F0CBF9FFF78BFF0246104B1A6064
:100AF0000C484FF4805100F0B3F900BF0A48802140
:100B0000FFF786FC0346012BF8D1094B1B689BB20B
:100B100005481946FFF712FC02484FF4805100F0D7
:100B2000ADF980BD000C0240004C004034000020B4
:100B30009800002080B500AFFFF7DCFCFFF7FAFC5F
:100B4000FFF740FD094B1A68094B1A6000BF0948BE
:100B50008021FFF75DFC0346012BF8D1044B1B6895
:100B60009BB204481946FFF7E9FBFEE79800002016
:100B7000B4000020004C004080B489B000AF786021
:100B80000023BB6100237B610023FB6102233B61E7
:100B90000023FB600223BB60484B9B6803F00C03FF
:100BA000BB61BB69042B07D0082B09D0002B3FD1B8
:100BB0007B68434A1A603FE07B68424A1A603BE028
:100BC0003E4B5B6803F480039B0DFB603B4B5B6813
:100BD00003F03F03BB60FB68002B0DD0394ABB68B4
:100BE000B2FBF3F2354B596847F6C0730B409B09D3
:100BF00003FB02F3FB610CE0314ABB68B2FBF3F28A
:100C00002E4B596847F6C0730B409B0903FB02F358
:100C1000FB612A4B5B6803F440331B0C01335B0020
:100C20003B61FA693B69B2FBF3F27B681A6003E04F
:100C30007B68234A1A6000BF204B9B6803F0F003D7
:100C4000BB61BB691B09BB611F4ABB6913441B78AD
:100C5000DBB27B617B681A687B69DA407B685A602B
:100C6000164B9B6803F4E053BB61BB699B0ABB61F5
:100C7000154ABB6913441B78DBB27B617B685A68F9
:100C80007B69DA407B689A600C4B9B6803F4604395
:100C9000BB61BB695B0BBB610B4ABB6913441B782F
:100CA000DBB27B617B685A687B69DA407B68DA601B
:100CB0002437BD465DF8047B704700BF0038024012
:100CC0000024F40040787D012400002080B483B02B
:100CD00000AF78600B46FB70FB78002B06D0094B09
:100CE000084A116B7A680A431A6306E0054B054A05
:100CF000116B7A68D2430A401A630C37BD465DF81F
:100D0000047B70470038024080B483B000AF786045
:100D10000B46FB70FB78002B06D0094B084A116C80
:100D20007A680A431A6406E0054B054A116C7A6832
:100D3000D2430A401A640C37BD465DF8047B704705
:100D40000038024080B487B000AF7860396000237B
:100D50007B6100233B610023FB6000237B6176E025
:100D60007B69012202FA03F33B613B681A683B6925
:100D70001340FB60FA683B699A4265D17B681A6848
:100D80007B695B00032101FA03F3DB431A407B68B4
:100D90001A607B681A683B681B7919467B695B009F
:100DA00001FA03F31A437B681A603B681B79012B35
:100DB00003D03B681B79022B2ED17B689A687B6934
:100DC0005B00032101FA03F3DB431A407B689A605E
:100DD0007B689A683B685B7919467B695B0001FA1E
:100DE00003F31A437B689A607B685A687B699BB2FD
:100DF000012101FA03F3DB431A407B685A607B68E8
:100E00005A683B689B7919467B699BB201FA03F3E8
:100E10009BB21A437B685A607B68DA687B699BB235
:100E20005B00032101FA03F3DB431A407B68DA60BD
:100E30007B68DA683B68DB7919467B695B0001FAFD
:100E400003F31A437B68DA607B6901337B617B695A
:100E50000F2B85D91C37BD465DF8047B704700BF5A
:100E600080B483B000AF78600B467B807B687A8863
:100E70001A830C37BD465DF8047B704780B483B09D
:100E800000AF78600B467B807B687A885A830C378A
:100E9000BD465DF8047B704780B485B000AF7860D4
:100EA00013460A467A807B700023FB600023BB60F8
:100EB0007A787B8803F007039B0002FA03F3FB6058
:100EC0007B88DB089BB21A467B88DB089BB21946FD
:100ED0007B68083153F821107B8803F007039B00DF
:100EE0000F2000FA03F3DB4319407B68083243F814
:100EF00022107B88DB089BB21A467B68083253F8C5
:100F00002220FB681343BB607B88DB089BB21A4638
:100F10007B680832B96843F822101437BD465DF883
:100F2000047B704780B485B000AF78600023FB730A
:100F30000023BB730F237B737B68DB78002B37D0D8
:100F4000254BDB68DB4303F4E0631B0AFB73FB7B8D
:100F5000C3F10403BB737A7BFB7B42FA03F37B731D
:100F60007B685B781A46BB7B02FA03F3FB737B68F2
:100F70009A787B7B1340DAB2FB7B1343FB73FB7BDA
:100F80001B01FB73154A7B681B781344FA7B83F8BB
:100F90000023124B7A6812785209D2B27968097824
:100FA00001F01F01012000FA01F143F822100EE0C8
:100FB0000A4B7A6812785209D2B27968097801F03E
:100FC0001F01012000FA01F1203243F822101437EA
:100FD000BD465DF8047B704700ED00E000E100E0F5
:100FE0003C0000000A0000000100000002000000B8
:100FF00003000000030000000600000009000000DC
:101000007F0000000000000001020304010203044D
:0410100006070809BE
:0400000508000000EF
:00000001FF
